{
    "_format": "hh-sol-artifact-1",
    "contractName": "MAQWithdrawal",
    "sourceName": "contracts/MAQWithdrawal.sol",
    "abi": [
        {
            "inputs": [
                {
                    "internalType": "address",
                    "name": "_usdtAddress",
                    "type": "address"
                }
            ],
            "stateMutability": "nonpayable",
            "type": "constructor"
        },
        {
            "anonymous": false,
            "inputs": [
                {
                    "indexed": true,
                    "internalType": "address",
                    "name": "previousOwner",
                    "type": "address"
                },
                {
                    "indexed": true,
                    "internalType": "address",
                    "name": "newOwner",
                    "type": "address"
                }
            ],
            "name": "OwnershipTransferred",
            "type": "event"
        },
        {
            "inputs": [
                {
                    "internalType": "address",
                    "name": "",
                    "type": "address"
                }
            ],
            "name": "balances",
            "outputs": [
                {
                    "internalType": "uint256",
                    "name": "",
                    "type": "uint256"
                }
            ],
            "stateMutability": "view",
            "type": "function"
        },
        {
            "inputs": [
                {
                    "internalType": "uint256",
                    "name": "",
                    "type": "uint256"
                }
            ],
            "name": "isClaimed",
            "outputs": [
                {
                    "internalType": "bool",
                    "name": "",
                    "type": "bool"
                }
            ],
            "stateMutability": "view",
            "type": "function"
        },
        {
            "inputs": [],
            "name": "owner",
            "outputs": [
                {
                    "internalType": "address",
                    "name": "",
                    "type": "address"
                }
            ],
            "stateMutability": "view",
            "type": "function"
        },
        {
            "inputs": [],
            "name": "renounceOwnership",
            "outputs": [],
            "stateMutability": "nonpayable",
            "type": "function"
        },
        {
            "inputs": [
                {
                    "internalType": "address",
                    "name": "newOwner",
                    "type": "address"
                }
            ],
            "name": "transferOwnership",
            "outputs": [],
            "stateMutability": "nonpayable",
            "type": "function"
        },
        {
            "inputs": [
                {
                    "internalType": "address",
                    "name": "_to",
                    "type": "address"
                },
                {
                    "internalType": "uint256",
                    "name": "_value",
                    "type": "uint256"
                },
                {
                    "internalType": "uint256",
                    "name": "_code",
                    "type": "uint256"
                },
                {
                    "internalType": "bytes",
                    "name": "_signature",
                    "type": "bytes"
                }
            ],
            "name": "transferUSTDWithSignature",
            "outputs": [],
            "stateMutability": "nonpayable",
            "type": "function"
        },
        {
            "inputs": [],
            "name": "usdtToken",
            "outputs": [
                {
                    "internalType": "contract IERC20",
                    "name": "",
                    "type": "address"
                }
            ],
            "stateMutability": "view",
            "type": "function"
        },
        {
            "stateMutability": "payable",
            "type": "receive"
        }
    ],
    "bytecode": "0x6080604052600180546001600160a01b0319167321dd8086461a9be3013fd6c425765da13be0e8a817905534801561003657600080fd5b50604051610b88380380610b88833981016040819052610055916100d3565b61005e33610083565b600480546001600160a01b0319166001600160a01b0392909216919091179055610103565b600080546001600160a01b038381166001600160a01b0319831681178455604051919092169283917f8be0079c531659141344cd1fd0a4f28419497f9722a3daafe3b4186f6b6457e09190a35050565b6000602082840312156100e557600080fd5b81516001600160a01b03811681146100fc57600080fd5b9392505050565b610a76806101126000396000f3fe6080604052600436106100745760003560e01c80639e34070f1161004e5780639e34070f14610109578063a98ad46c14610149578063f2fde38b14610169578063fbc9a5891461018957600080fd5b806327e235e314610080578063715018a6146100c05780638da5cb5b146100d757600080fd5b3661007b57005b600080fd5b34801561008c57600080fd5b506100ad61009b3660046108ad565b60026020526000908152604090205481565b6040519081526020015b60405180910390f35b3480156100cc57600080fd5b506100d56101a9565b005b3480156100e357600080fd5b506000546001600160a01b03165b6040516001600160a01b0390911681526020016100b7565b34801561011557600080fd5b506101396101243660046109c6565b60036020526000908152604090205460ff1681565b60405190151581526020016100b7565b34801561015557600080fd5b506004546100f1906001600160a01b031681565b34801561017557600080fd5b506100d56101843660046108ad565b6101e8565b34801561019557600080fd5b506100d56101a43660046108cf565b610283565b6000546001600160a01b031633146101dc5760405162461bcd60e51b81526004016101d3906109df565b60405180910390fd5b6101e660006104d6565b565b6000546001600160a01b031633146102125760405162461bcd60e51b81526004016101d3906109df565b6001600160a01b0381166102775760405162461bcd60e51b815260206004820152602660248201527f4f776e61626c653a206e6577206f776e657220697320746865207a65726f206160448201526564647265737360d01b60648201526084016101d3565b610280816104d6565b50565b6000546001600160a01b031633146102ad5760405162461bcd60e51b81526004016101d3906109df565b60008281526003602052604090205460ff16156102ff5760405162461bcd60e51b815260206004820152601060248201526f105b1b1c9958591e4818db185a5b595960821b60448201526064016101d3565b60408051606086901b6bffffffffffffffffffffffff1916602080830191909152603482018690526054808301869052835180840390910181526074830184528051908201207f19457468657265756d205369676e6564204d6573736167653a0a333200000000609484015260b08084018290528451808503909101815260d0909301909352815191012060006103968285610526565b6001549091506001600160a01b038083169116146103ea5760405162461bcd60e51b8152602060048201526011602482015270496e76616c6964207369676e617475726560781b60448201526064016101d3565b6004805460405163a9059cbb60e01b81526001600160a01b038a8116938201939093526024810189905291169063a9059cbb90604401602060405180830381600087803b15801561043a57600080fd5b505af115801561044e573d6000803e3d6000fd5b505050506040513d601f19601f8201168201806040525081019061047291906109a4565b6104b55760405162461bcd60e51b81526020600482015260146024820152731554d115081d1c985b9cd9995c8819985a5b195960621b60448201526064016101d3565b505050600091825250600360205260409020805460ff191660011790555050565b600080546001600160a01b038381166001600160a01b0319831681178455604051919092169283917f8be0079c531659141344cd1fd0a4f28419497f9722a3daafe3b4186f6b6457e09190a35050565b6000806000610535858561054a565b91509150610542816105ba565b509392505050565b6000808251604114156105815760208301516040840151606085015160001a61057587828585610775565b945094505050506105b3565b8251604014156105ab57602083015160408401516105a0868383610862565b9350935050506105b3565b506000905060025b9250929050565b60008160048111156105ce576105ce610a14565b14156105d75750565b60018160048111156105eb576105eb610a14565b14156106395760405162461bcd60e51b815260206004820152601860248201527f45434453413a20696e76616c6964207369676e6174757265000000000000000060448201526064016101d3565b600281600481111561064d5761064d610a14565b141561069b5760405162461bcd60e51b815260206004820152601f60248201527f45434453413a20696e76616c6964207369676e6174757265206c656e6774680060448201526064016101d3565b60038160048111156106af576106af610a14565b14156107085760405162461bcd60e51b815260206004820152602260248201527f45434453413a20696e76616c6964207369676e6174757265202773272076616c604482015261756560f01b60648201526084016101d3565b600481600481111561071c5761071c610a14565b14156102805760405162461bcd60e51b815260206004820152602260248201527f45434453413a20696e76616c6964207369676e6174757265202776272076616c604482015261756560f01b60648201526084016101d3565b6000807f7fffffffffffffffffffffffffffffff5d576e7357a4501ddfe92f46681b20a08311156107ac5750600090506003610859565b8460ff16601b141580156107c457508460ff16601c14155b156107d55750600090506004610859565b6040805160008082526020820180845289905260ff881692820192909252606081018690526080810185905260019060a0016020604051602081039080840390855afa158015610829573d6000803e3d6000fd5b5050604051601f1901519150506001600160a01b03811661085257600060019250925050610859565b9150600090505b94509492505050565b6000806001600160ff1b03831660ff84901c601b0161088387828885610775565b935093505050935093915050565b80356001600160a01b03811681146108a857600080fd5b919050565b6000602082840312156108bf57600080fd5b6108c882610891565b9392505050565b600080600080608085870312156108e557600080fd5b6108ee85610891565b93506020850135925060408501359150606085013567ffffffffffffffff8082111561091957600080fd5b818701915087601f83011261092d57600080fd5b81358181111561093f5761093f610a2a565b604051601f8201601f19908116603f0116810190838211818310171561096757610967610a2a565b816040528281528a602084870101111561098057600080fd5b82602086016020830137600060208483010152809550505050505092959194509250565b6000602082840312156109b657600080fd5b815180151581146108c857600080fd5b6000602082840312156109d857600080fd5b5035919050565b6020808252818101527f4f776e61626c653a2063616c6c6572206973206e6f7420746865206f776e6572604082015260600190565b634e487b7160e01b600052602160045260246000fd5b634e487b7160e01b600052604160045260246000fdfea264697066735822122007de5f28e54a33cba18d79b0bf692839e964d4a2b22f9fe9d3edea5ae78d96c164736f6c63430008060033",
    "linkReferences": {},
    "deployedLinkReferences": {}
}